S01300004D6F6F635F50726F6A6563742E7331391D
S113000000600020D5000000430100001111000031
S113001000000000000000000000000000000000DC
S11300200000000000000000000000004701000084
S11300300000000000000000490100004B01000026
S11300404F010000570100005F010000670100003C
S11300506F010000770100007F01000087010000AC
S11300608F010000970100009F010000A70100001C
S113007011140000B7010000BF010000C701000017
S1130080CF010000D7010000DF010000E7010000FC
S1130090EF010000F7010000FF010000070200006B
S11300A00F020000170200001F02000027020000D8
S11300B02F02000037020000FD0E0000590F00005F
S11300C01036000080E0FF1F0000000080E0FF1FEA
S11300D0B001000010B572B601F012FB0D4B07E041
S11300E0186859681C000C349A6800F019F8230049
S11300F0094A9342F4D306E018681C00083459688E
S113010000F017F82300054A9342F5D362B603F0D2
S113011085F8FEE7C0000000CC000000D400000019
S113012010B5002302E010C810C104339342FAD37F
S113013010BD002302E0002204C004338B42FAD332
S11301407047FEE7FEE7FEE7FEE7FEE7FEE710B5D1
S1130150FFF7FCFF10BD10B5FFF7F8FF10BD10B599
S1130160FFF7F4FF10BD10B5FFF7F0FF10BD10B599
S1130170FFF7ECFF10BD10B5FFF7E8FF10BD10B599
S1130180FFF7E4FF10BD10B5FFF7E0FF10BD10B599
S1130190FFF7DCFF10BD10B5FFF7D8FF10BD10B599
S11301A0FFF7D4FF10BD10B5FFF7D0FF10BD10B599
S11301B0FFF7CCFF10BD10B5FFF7C8FF10BD10B599
S11301C0FFF7C4FF10BD10B5FFF7C0FF10BD10B599
S11301D0FFF7BCFF10BD10B5FFF7B8FF10BD10B599
S11301E0FFF7B4FF10BD10B5FFF7B0FF10BD10B599
S11301F0FFF7ACFF10BD10B5FFF7A8FF10BD10B599
S1130200FFF7A4FF10BD10B5FFF7A0FF10BD10B598
S1130210FFF79CFF10BD10B5FFF798FF10BD10B598
S1130220FFF794FF10BD10B5FFF790FF10BD10B598
S1130230FFF78CFF10BD10B5FFF788FF10BD10B598
S1130240FFF784FF10BD10B5FFF780FF10BDFFFF5F
S1130250FFFFFFFFFFFFFFFFFFFFFFFFFFFFFFFFAA
S1130260FFFFFFFFFFFFFFFFFFFFFFFFFFFFFFFF9A
S1130270FFFFFFFFFFFFFFFFFFFFFFFFFFFFFFFF8A
S1130280FFFFFFFFFFFFFFFFFFFFFFFFFFFFFFFF7A
S1130290FFFFFFFFFFFFFFFFFFFFFFFFFFFFFFFF6A
S11302A0FFFFFFFFFFFFFFFFFFFFFFFFFFFFFFFF5A
S11302B0FFFFFFFFFFFFFFFFFFFFFFFFFFFFFFFF4A
S11302C0FFFFFFFFFFFFFFFFFFFFFFFFFFFFFFFF3A
S11302D0FFFFFFFFFFFFFFFFFFFFFFFFFFFFFFFF2A
S11302E0FFFFFFFFFFFFFFFFFFFFFFFFFFFFFFFF1A
S11302F0FFFFFFFFFFFFFFFFFFFFFFFFFFFFFFFF0A
S1130300FFFFFFFFFFFFFFFFFFFFFFFFFFFFFFFFF9
S1130310FFFFFFFFFFFFFFFFFFFFFFFFFFFFFFFFE9
S1130320FFFFFFFFFFFFFFFFFFFFFFFFFFFFFFFFD9
S1130330FFFFFFFFFFFFFFFFFFFFFFFFFFFFFFFFC9
S1130340FFFFFFFFFFFFFFFFFFFFFFFFFFFFFFFFB9
S1130350FFFFFFFFFFFFFFFFFFFFFFFFFFFFFFFFA9
S1130360FFFFFFFFFFFFFFFFFFFFFFFFFFFFFFFF99
S1130370FFFFFFFFFFFFFFFFFFFFFFFFFFFFFFFF89
S1130380FFFFFFFFFFFFFFFFFFFFFFFFFFFFFFFF79
S1130390FFFFFFFFFFFFFFFFFFFFFFFFFFFFFFFF69
S11303A0FFFFFFFFFFFFFFFFFFFFFFFFFFFFFFFF59
S11303B0FFFFFFFFFFFFFFFFFFFFFFFFFFFFFFFF49
S11303C0FFFFFFFFFFFFFFFFFFFFFFFFFFFFFFFF39
S11303D0FFFFFFFFFFFFFFFFFFFFFFFFFFFFFFFF29
S11303E0FFFFFFFFFFFFFFFFFFFFFFFFFFFFFFFF19
S11303F0FFFFFFFFFFFFFFFFFFFFFFFFFFFFFFFF09
S1130400FFFFFFFFFFFFFFFFFFFFFFFFFEFFFFFFF9
S113041080B584B000AF786039600F23FB180022E8
S11304201A703B00BB60C0462F4B1B78DBB25BB23B
S1130430002BF9DA2C4B1B78DBB21A002023134073
S113044006D1294B1B78DBB21A001023134002D0CB
S1130450254B30221A70244B0622DA717B681A0C61
S1130460214BD2B29A717B681A0A1F4BD2B25A71CD
S11304701D4B7A68D2B21A711B4ABB68DB78D372FF
S1130480194ABB689B789372174ABB685B785372AE
S1130490154ABB681B781372134B80221A70C0462E
S11304A0114B1B78DBB25BB2002BF9DA0E4B1B78D5
S11304B0DBB21A002023134006D10B4B1B78DBB2AE
S11304C01A001023134004D00F23FB1804221A70BF
S11304D003E00F23FB1800221A700F23FB181B786C
S11304E01800BD4604B080BD0000024080B584B051
S11304F000AF0200FB1D1A700F217B1800221A7036
S1130500FB1D1B78012B03D87B1801221A704DE0C8
S1130510FB1D1B789B02BB60C046284B1B78DBB2DB
S11305205BB2002BF9DA254B1B78DBB21A002023CF
S1130530134006D1214B1B78DBB21A001023134061
S113054002D01E4B30221A701C4B0922DA71BB6890
S11305501A0C1A4BD2B29A71BB681A0A174BD2B250
S11305605A71164BBA68D2B21A71144B80221A709F
S1130570C046124B1B78DBB25BB2002BF9DA0F4B8F
S11305801B78DBB21A002023134006D10B4B1B78D7
S1130590DBB21A001023134004D00F23FB180322EC
S11305A01A7003E00F23FB1800221A700F23FB18A4
S11305B01B781800BD4604B080BDC0460000024050
S11305C080B586B000AF0200FB1D1A70BB1D0A1C6B
S11305D01A701723FB1800221A70FB1D1B789B024C
S11305E03B61BB1D1B789AB20E23FB1812021A80C2
S11305F0C046334B1B78DBB25BB2002BF9DA304BCD
S11306001B78DBB21A002023134006D12C4B1B7835
S1130610DBB21A001023134002D0294B30221A7087
S1130620274B0122DA713B691A0C254BD2B29A711D
S11306303B691A0A224BD2B25A71214B3A69D2B29F
S11306401A710E217B181B881B0A9AB21C4BD2B25A
S1130650DA721B4A7B181B88DBB29372184B002298
S11306605A72174B80221A70C046154B1B78DBB2A6
S11306705BB2002BF9DA124B1B78DBB21A00202391
S1130680134006D10E4B1B78DBB21A001023134023
S113069004D01723FB1801221A700AE0084B1B78B8
S11306A0DBB21A000123134003D01723FB180222E4
S11306B01A701723FB181B781800BD4606B080BDBE
S11306C00000024080B500AFBFF34F8FC046044B1B
S11306D0044ADA60BFF34F8FC046C046FDE7C04608
S11306E000ED00E00400FA05F0B5C7B000AF00F07B
S11306F043FAD04B0321180002F068FB031E00D01C
S1130700A6E1CD4B1900092000F058FA1823FF3355
S1130710FB1800221A708B235B00FB1800221A704E
S11307208B235B00FB1800221A702C243B190A212E
S1130730180000F0CFFF3B191B78453B0F2B00D965
S113074061E19A00BD4BD3181B689F462C26BB1948
S113075001338B256D007C19F722BA18190010009B
S113076002F00BFD030023707B191B78002B00D0D3
S11307704FE1BB1903337C19F626BA19190010008E
S113078002F0FBFC030023702C003B191B78002BA8
S113079000D03EE1F722BB181A78BB191B78190068
S11307A01000FFF70DFF031E08D13B1903221A7036
S11307B01823FF33FB1801221A702AE18B235B00F4
S11307C0FB1807221A7024E12C23FB1801338B2613
S11307D07600BC19F7257A191900100002F0CDFC37
S11307E003002370BB191B78002B00D013E10E20EB
S11307F0FFF77CFE7B191B781A00E0239B01110094
S11308001800FFF705FE7B191B781A008C49902409
S11308103B19180001F084FE3B191900092000F06F
S1130820CDF9F8E02C23FB1801338B256D007C19DE
S1130830F726BA191900100002F09FFC0300237078
S11308407B191B78002B00D0E7E02C23FB18033323
S11308507C19F622BA181900100002F08EFC03006D
S113086023702C003B191B78002B00D0D5E03500F9
S11308707B191A78F626BB191B781900100002F0B0
S1130880F5F903001A006F4B1A706E4B1B78002B9E
S113089012D13B1900221A70BB191B781A007B195C
S11308A01B7869499024381901F03AFE3B19190064
S11308B0092000F083F9B0E08B235B00FB180222CF
S11308C01A70AAE01823FF33FB181B78012B00D001
S11308D08FE02C23FA183B1D1100180000F034FCA3
S11308E0031E00D07AE0594B8C2252009B18DB196E
S11308F01B78012B0BD0554B9B18DB191B78022B53
S113090005D0524B9B18DB191B78032B47D10023CE
S113091088225200BA18136033E04C4B8C225200E8
S11309209B18DB195A68882149007B181B68D0186A
S11309307B181B683A1D0832D3181B681900FFF78F
S113094067FD03001A003F4B1A703E4B1B78002BC7
S11309500BD08B235B00FB1804221A701823FF337F
S1130960FB1800221A70C04649E08B235B00FB1879
S113097000221A7088225200BB181B680433BA186C
S11309801360324B8C2252009B18DB195B781A00DF
S113099088235B00FB181B689342BEDB2FE02B4BC4
S11309A08C2252009B18DB191B78092B0BD0274B88
S11309B09B18DB191B78082B05D0244B9B18DB19DB
S11309C01B78072B2BD18B235B00FB1805221A7095
S11309D01823FF33FB1800221A7020E01823FF337A
S11309E0FB1800221A708B235B00FB1801221A707B
S11309F015E08B235B00FB1807221A700FE00EE052
S1130A00FFF760FE0CE08B235B00FB1806221A70D4
S1130A1006E0C04604E0C04602E0C04600E0C0462E
S1130A208B235B00FB181B780021180000F0C6F82C
S1130A3076E6C04680F00F40A033000090340000FA
S1130A40E03300002CE2FF1F10340000ECFEFFFF37
S1130A50E0239B011B68842464003A1913603B194A
S1130A601A683D4990257B19180001F059FD7B193E
S1130A70180000F005FE394B0321180002F03AFA81
S1130A803B191B689B021B687A1DFF3213603B19DC
S1130A901B689B0204331B687A1CFF3213607B1DA6
S1130AA0FF331B687A1CFF3212682D49781901F054
S1130AB037FD7B19180000F0E3FD2A4B8622520013
S1130AC0BA181360C046862149007B181B685A1E59
S1130AD079180A60002BF6D17B1CFF331B680122B6
S1130AE013402FD07B1DFF331B681F4A934229D923
S1130AF07B1DFF331B681D4A934223D81C4B842261
S1130B005200BA18126892029A607B1DFF331B6868
S1130B10F822B9180B60BB181B6883F30888C04619
S1130B207B1DFF331B68FC22B9180B60BB181B68C4
S1130B3083F30988C04600F079FD7B1CFF331B68F2
S1130B40984705E00B4B180000F09AFDC046FDE7FE
S1130B50BD4647B0F0BDC0463434000000B0044088
S1130B6054340000A0860100FFDFFF1F0060002056
S1130B7000ED00E08034000080B582B000AF3B1D82
S1130B800B4A12681A603B1D0A481A00032100F040
S1130B9063F93B0000221A803B0007481A00032136
S1130BA002F0C5F800F070FCC046BD4602B080BD3E
S1130BB0D034000000B0044080F00F4090B587B0FE
S1130BC000AF02003960FB1D1A70FB1D1A782C4916
S1130BD00C243B19180001F0A3FCFB1D1B78002B0F
S1130BE007D0FB1D1B78092B03D03B19180000F01C
S1130BF047FDFB1D1B780A2B32D89A00214BD318D2
S1130C001B689F46204B180000F03AFD28E01F4B5C
S1130C10180000F035FD23E01D4B180000F030FDF6
S1130C201EE01C4B180000F02BFD19E01A4B1800B5
S1130C3000F026FD14E0194B180000F021FD0FE030
S1130C40174B180000F01CFD0AE0124B180000F0CE
S1130C5017FD05E0134B180000F012FD00E0C0463C
S1130C603B68002B07D0104B180000F009FD3B68CF
S1130C70180000F005FDC046BD4607B090BDC04653
S1130C80D43400008C350000DC340000EC34000067
S1130C90003500001C3500003035000040350000F0
S1130CA050350000703500008835000080B582B0F2
S1130CB000AF0200FB1D1A70FB1D1B787F2B09D8A7
S1130CC0FB1D1B781A001F231A40044B012191407D
S1130CD00A001A60C046BD4602B080BD00E100E0D3
S1130CE080B582B000AF78607B68244A934209D112
S1130CF0234A244BD3582249802292001343214A89
S1130D008B5036E07B68204A934209D11C4A1D4B24
S1130D10D3581B498022D20013431A4A8B5028E02F
S1130D207B681A4A934209D1154A164BD358144981
S1130D30802212011343134A8B501AE07B68144A31
S1130D40934209D10E4A0F4BD3580D4980225201C8
S1130D5013430C4A8B500CE07B680E4A934208D133
S1130D60074A084BD3580649802292011343054A87
S1130D708B50C046BD4602B080BDC04600900440C2
S1130D80007004403810000000A0044000B004408B
S1130D9000C0044000D0044080B582B000AF786049
S1130DA008001100FB1C021C1A70BB1C0A1C1A70E0
S1130DB0FB1C1A787B689200D358FA1C12780D49F0
S1130DC019407B689200D150FB1C1A787B68920012
S1130DD0D158BB1C1B781A02E023DB001340FA1C19
S1130DE0127819437B689200D150C046BD4602B0C8
S1130DF080BDC046FFF8FFFF80B582B000AF7860C9
S1130E0008001100FB1C021C1A70BB1C0A1C1A707F
S1130E10FB1C1A787B689200D358FA1C12780D498F
S1130E2019407B689200D150FB1C1A787B689200B1
S1130E30D158BB1C1B781A04F0231B031340FA1C63
S1130E40127819437B689200D150C046BD4602B067
S1130E5080BDC046FFFFF0FF90B585B000AFF860DD
S1130E607A600B243B190A1C1A70FB681800FFF700
S1130E7037FF7B681A783B191978FB681800FFF76D
S1130E808BFF7B685A783B191978FB68180001F0CE
S1130E90B4FF7B689A783B191978FB68180001F055
S1130EA0FCFF7B681B78002B07D07B68DA783B1942
S1130EB01978FB681800FFF79FFF7B68DB78002B2D
S1130EC011D0FB680A4A934202D11E20FFF7EEFEBE
S1130ED0FB68084A934203D0FB68074A934202D155
S1130EE01F20FFF7E3FEC046BD4605B090BDC046D7
S1130EF00090044000B0044000C0044080B582B0BB
S1130F0000AF00237B601BE07B68DBB2104A190052
S1130F10100002F016F8031E0FD07B68DBB20C4AF7
S1130F201900100002F025F80A4B1B68002B04D0AE
S1130F30084B1B687A68100098477B6801337B6014
S1130F407B681F2BE0DDC046C046BD4602B080BDB5
S1130F500090044080E0FF1F80B582B000AF002302
S1130F607B601BE07B68DBB2214A1900100001F0B2
S1130F70E8FF031E0FD07B68DBB21D4A1900100086
S1130F8001F0F7FF1B4B1B68002B04D0194B1B68A7
S1130F907A68100098477B6801337B607B681F2B5D
S1130FA0E0DD00233B601BE03B68DBB2124A190022
S1130FB0100001F0C6FF031E0FD03B68DBB20E4ADF
S1130FC01900100001F0D5FF0C4B1B68002B04D056
S1130FD00A4B1B683A68100098473B6801333B6032
S1130FE03B681F2BE0DDC046C046BD4602B080BD55
S1130FF000B0044084E0FF1F00C0044088E0FF1FED
S113100080B584B000AF78600F217B1800221A707D
S11310107B68DB88064A934202D17B1801221A704E
S11310200F23FB181B781800BD4604B080BDC046D2
S1131030FFFF000080B584B000AF78600A00FB1C9D
S11310401A700F23FB1800221A707B68180001F035
S1131050C4FF031E21D17B68DB882C4A934202D152
S11310607B680022DA807B681B8901339AB27B6833
S11310701A817B681B891A007B689B7A190010000F
S113108002F0F7F80B009AB27B681A817B689B88A0
S113109001339AB27B689A8029E00F23FB1801225E
S11310A01A707B68DB8801339AB27B68DA807B68CC
S11310B0DB881A007B689B7A1900100002F0D9F8CB
S11310C00B009AB27B68DA807B681B8901339AB281
S11310D07B681A817B681B891A007B689B7A1900DC
S11310E0100002F0C6F80B009AB27B681A817B6884
S11310F01B687A6812899B18FA1C12781A700F23DD
S1131100FB181B781800BD4604B080BDFFFF00002B
S113111004207146084202D0EFF3098001E0EFF3A6
S1131120088081690A88074B9A4200D0FEE70231A1
S113113081610168012901D0002100E020210160C2
S11311407047C046ABBE0000F0B587B000AF786012
S113115039601723FB1800221A701523FB1800228C
S11311601A703B681B78532B00D007E13B680133AE
S11311701B78180001F0DCFF03001A007B681A706A
S11311807B681B7809229A4292415242D2B2002AC9
S113119028D101229A4013007E4A1A40511E8A41E6
S11311A0D2B2002A0FD1A22252001A40511E8A4103
S11311B0D2B2002A0CD1882213405A1E9341DBB2CA
S11311C0002B0AD10EE01623FB1802221A7009E044
S11311D01623FB1803221A7004E01623FB180422BA
S11311E01A70C0467B685A1C3B68023317257C1969
S11311F01900100001F0C1FF030023707B191B7854
S1131200002B00D0B5E07B6859781522BB18BA18BA
S113121012788A181A707B6800225A6000233B6196
S11312202BE03B6902335B001A003B689A181726CF
S1131230BC190A257B191100180001F09EFF030058
S11312402370BB191B78002B1ED128003B1819787A
S11312501522BB18BA1812788A181A707B681A1DDE
S11312601623FB1819783B69CB1A013BD3183A189B
S113127012781A703B6901333B611623FB181B7803
S11312803A699A42CDDB00E0C0461723FB181B786D
S1131290002B00D076E00023FB602AE01623FB1825
S11312A01B789A1CFB68D3185B001A003B689A18D9
S11312B01726BC190A257B191100180001F05DFFDF
S11312C003002370BB191B78002B1ED17B680833E5
S11312D01A00FB68D3187A1912781A707B191978D6
S11312E01522BB18BA1812788A181A70FB680133D1
S11312F0FB607B685B781A001623FB181B78D31AF3
S1131300013BFA689A42C9DB00E0C04617217B180A
S11313101B78002B36D17B685B7801335B001A00A5
S11313203B689A180D007C180B26BB191100180095
S113133001F023FF0300237029007B181B78002B86
S113134020D1BB191B781A001523FB181B78D3185E
S1131350FF2B09D17B1800221A707B685B78033B52
S1131360DAB27B685A700DE01723FB1804221A7056
S113137008E01723FB1803221A7003E01723FB1855
S113138001221A701723FB181B781800BD4607B0FA
S1131390F0BDC0462302000080B582B000AF020059
S11313A0FB1D1A70FB1D1B787F2B09D8FB1D1B78B6
S11313B01A001F231A40044B012191400A001A60AD
S11313C0C046BD4602B080BD00E100E080B582B0F9
S11313D000AF0200FB1D1A70FB1D1B787F2B10D879
S11313E0FB1D1B781A001F231340084901229A4051
S11313F0130080228B50BFF34F8FC046BFF36F8F13
S1131400C046C046BD4602B080BDC04600E100E013
S113141090B583B000AF194B1B79DBB21A002023BF
S1131420134007D0154BDB79DAB2154B11001800C5
S1131430FFF700FE114B1B79DBB25BB2002B19DA0C
S1131440BC1D104B180001F0EFFD03002380BB1DF1
S113145000229B5E013305D0084ABB1D1B88DBB20A
S1131460D37107E0054BDB78DBB2044A7F210B40E4
S1131470DBB2D370C046BD4603B090BD00A00640A9
S11314808CE0FF1F98E0FF1F80B582B000AF5B4B7C
S11314905B78DBB2594A01210B43DBB25370574BE3
S11314A01B78DBB2554A02210B43DBB21370534B5A
S11314B01B7ADBB2514A0E218B43DBB21372504AC2
S11314C0504BD3584E498022D20013434D4A8B507F
S11314D04B4A4D4BD3584A494C4A13404A4A8B50C5
S11314E0474A494BD3584649C02212051343464A3A
S11314F08B50434A464BD3584149802292001343B0
S1131500434A8B503B1D00221A603B1D02221A7075
S11315103B1D01225A703B1D3E481A000121FFF772
S11315209BFC3B1D3B481A000221FFF795FC3A4BFC
S11315301B78DBB2384A1F210B40DBB21370364BE9
S11315402A225A70344B9B7ADBB21F229343DBB2BC
S1131550314A09210B43DBB293722F4B2A225A7072
S11315602D4B9B7ADBB21F229343DBB22A4A09211B
S11315700B43DBB29372284B9B78DBB2264A0221E1
S11315808B43DBB29370244B9B78DBB2224A01215C
S11315908B43DBB29370204B1B78DBB21E4A2021B5
S11315A00B40DBB213701C4BDB78DBB21A4A082108
S11315B00B43DBB2D370184BDB78DBB2164A042141
S11315C00B43DBB2D370144BDB78DBB2124A20211D
S11315D00B43DBB2D3700C20FFF7DEFE0F49104B38
S11315E06422180001F0DDFC0E490F4B6422180040
S11315F001F0D7FCC046BD4602B080BD00400640A5
S1131600007004403410000004100000FFFFFFF3DA
S1131610381000000090044000A00640A4E0FF1F22
S11316208CE0FF1F08E1FF1F98E0FF1F80B500AFAB
S1131630124BDB78DBB2114A20218B43DBB2D3702F
S11316400E4BDB78DBB20D4A7F210B40DBB2D3704B
S11316500A4BDB78DBB2094A08218B43DBB2D37037
S1131660064BDB78DBB2054A04218B43DBB2D37033
S11316700C20FFF7ABFEC046BD4680BD00A006406F
S113168080B584B000AF78600023FB600AE0FB689B
S11316905A1CFA607A68D3181A780C4B1100180097
S11316A0FFF7C8FC7A68FB68D3181B78002BEED1CF
S11316B0074BDB78DBB20649802252421343DBB28C
S11316C0CB70C046BD4604B080BDC04698E0FF1F45
S11316D000A0064080B582B000AF78600A00FB1C11
S11316E01A70FB1C1A787968044B180001F0E5FCA9
S11316F003001800BD4602B080BDC0468CE0FF1F49
S113170080B500AF044A88235B010021D15001F069
S113171080FDC046BD4680BD0070044070B5184CC5
S113172018492200002001F04BF8802380225B003E
S113173000212000D20000F027FF134C134D22009B
S11317402900012001F03CF8802380225B00002165
S11317502000D20000F018FF0D4B1B68022B0DDD9A
S11317600C4C29002200022001F02AF88023802258
S1131770002120005B00D20000F006FF70BDC046CF
S113178078E1FF1FBC350000B4E1FF1FBE35000047
S1131790B8350000F0E1FF1FF0B5D1B00A92579AB6
S11317A00600089200220B93569B079218785A1C45
S11317B00C92002802D1079851B0F0BD252833D1EE
S11317C000270C9A11000D7801322B2D60D048D8D7
S11317D0202D5FD0232D5FD02A2D46D1089B01CB2D
S11317E00D90002803DA40420D9001204740023159
S11317F015780C910893089B0693002310932E2DC3
S11318005ED10C9B1D782A2D4BD00A200133290070
S11318103039CCB21A00092C75D8109C1D78444379
S11318200A1910920133F2E7079B0B9ADB179A42CD
S113183009DC03D10A9B079A934204D8079B01331E
S113184007930C9BB2E7B368013BB360002B04DB46
S113185033685A1C32601870F0E7310000F008FF5A
S1131860ECE72D2D11D0302D18D000230A200D9334
S11318702B00303BD9B20C920929BCD80D991578AC
S113188041435B180D930132F2E701231F4399E7AB
S11318900223FBE70423F9E70823F7E780239B00EF
S11318A0F4E7069B04330693089B1B6810930C9B78
S11318B05D789A1C109B002B27DA00230C9210935E
S11318C06C2D09D10C9B1D786C2D22D15D78602381
S11318D01F430C9B02330C934C2D4DD0712D4BD0D8
S11318E01DDC682D4FD06A2D00D18AE0572D1CDCF9
S11318F0412D00D1C4E300DD88E0002D56D10C9BBE
S1131900013B0C93E3E0089B069310230C921F43C6
S1131910D6E70C9B01330C9320231F43DCE7742D83
S113192071D07A2D6FD0782D40DC280058382028CB
S11319303CD801F017FDFB013B003B003B003B00A2
S11319403B003B003B003B00A5033B0088006B03CE
S11319507000700070003B006B033B003B003B00D9
S11319603B001B010E0365023B003B003C013B00B6
S113197038033B003B002B020C9B1D7860231F4364
S11319800C9B013309E00C9B1D78682D07D1802343
S11319905B001F430C9B5D7802330C9304E00C9BAB
S11319A001330C9380231F43782D9FDD0D9B3A0058
S11319B0013B089301231A4010921F4247D0079B12
S11319C0079A0B990133D217914200DDA8E004D1A4
S11319D00A9A07998A4200D9A2E0079301240025B4
S11319E0079B089F2693DB172793013F00D49EE0B3
S11319F0089B089ADB43DB171340079AD318079315
S1131A0065E040231F430C9B1D78BAE72B0002229C
S1131A109343452BCAD18023DB003B43FF0601D40B
S1131A20062210920721069A1F0007328A4303CA2E
S1131A3000230692002204920593002346904791C6
S1131A401A001193E5E1069B20CB0693AEE7202410
S1131A50BF0500D51034079B2493DB172593089BFF
S1131A60013B37D50D9B002B55DD013B38930023FB
S1131A703993079B3E93DB173F933E983F99389ADF
S1131A80399B12184B410D99002900DC012107985C
S1131A90411807910B99994203DC18D10A99914294
S1131AA015D900230D9A9A4201DD01339B1A0D9A30
S1131AB0023A9B180893B368013BB360002B31DBF7
S1131AC033685A1C32601D70109B002B86D1069B14
S1131AD00893B6E60893259A0B9B934204DC0CD139
S1131AE00A9B249A934208D9B368013BB360002B44
S1131AF00CDB33685A1C32601C700120249A259B2D
S1131B00002112184B4124922593A8E731002000AC
S1131B1000F0AEFDF1E70023002438933994A8E7E0
S1131B200793C8E73100280000F0A2FDCCE70B9B27
S1131B30279A934204DC0DD10A9B269A934209D931
S1131B40B368013BB360002B0BDB33685A1C326073
S1131B5020221A70269A279B12196B4126922793EA
S1131B6043E73100202000F083FDF3E7069B1A1DB4
S1131B707B0607D5069B07991B681960C91759602E
S1131B800692A4E7BB0604D5069B07991B68196057
S1131B90F6E7FB0504D5069B07991B681970EFE768
S1131BA0069B07991B683F06F1D51980E8E7069B59
S1131BB004CB11923A93002A01D18A4B11931198C4
S1131BC000F008FD0690FB0603D5109A904200DD54
S1131BD006920D9B069A9B1A08933A0001231A4019
S1131BE00D921F4216D12024BF0500D51034079B47
S1131BF0089D1A93DB171B93013D36D5089B089A61
S1131C00DB43DB171340079AD2180792089A013A6C
S1131C10D31A0893002701240025079B2093DB1780
S1131C202193069B9F4240DBDB43069ADB1713405C
S1131C30079AD31807933A9B06930D9B002B00D168
S1131C4045E701240025079B089F2893DB17299368
S1131C50013F4CD5089B089ADB43DB171340079AD6
S1131C60D31807933A9B069331E70B9B1B9A934235
S1131C7004DC0CD10A9B1A9A934208D9B368013B3D
S1131C80B360002B0CDB33685A1C32601C700120DB
S1131C901A9A1B9B002112184B411A921B93ABE713
S1131CA03100200000F0E4FCF1E70B9B219A934201
S1131CB004DC0ED10A9B209A93420AD9B368013BF3
S1131CC0B360002B0DDB33685A1C3260119AD25D6D
S1131CD01A70209A219B12196B410137209221938B
S1131CE09FE7119B3100D85D00F0C2FCF1E70B9B2C
S1131CF0299A934204DC0DD10A9B289A934209D96C
S1131D00B368013BB360002B0BDB33685A1C3260B1
S1131D1020221A70289A299B12196B412892299320
S1131D2096E73100202000F0A3FCF3E740233A00BB
S1131D301A401F421DD00722069B07339343190004
S1131D400CC904920593069180233A001A401F425D
S1131D5015D06B461B8A049300230593224A3B0744
S1131D6000D4224A224B1193F90652D521490F403F
S1131D704FE0069B059202CB04910693E4E7FB0532
S1131D80ECD56B461B7C05920493E7E740233A00AD
S1131D901A401F4218D00722069B073393431900A9
S1131DA00CC904920593069180233A001A401F42FD
S1131DB010D06B461B8A0493002305930E4A3B07FD
S1131DC000D40A4A0D4BCEE7069B059202CB049140
S1131DD00693E9E7FB05F1D56B461B7C059204935A
S1131DE0ECE7C046C0350000C73500000E360000E1
S1131DF0D5350000FFFDFFFFCA350000E6350000C1
S1131E00069B04CB049200220693A74B0592A74A93
S1131E101193079B43924093DB1701220A980B9975
S1131E204193409B419CC01AA141524208900991A0
S1131E304492459255200022109B48A94293505445
S1131E400132202AFBD18222D200174201D1012281
S1131E5042926E2D00DD1BE1472D00DDB3E12A0027
S1131E605123413AD340012219001140134200D0BA
S1131E70EBE1109180233A00DB001A403A921F42B2
S1131E8000D1F4E100234293449B002B01DD013B8C
S1131E904293459B429A002B02DD013B9B184293DF
S1131EA0109B429C43981C1900F094FB0D9B1C1B37
S1131EB0231A0D9301233B403B937D4B1F4200D1DA
S1131EC002E200231493DB171593439B5A1C43929D
S1131ED01D78002D00D0FAE13B9B149C002B15D1FA
S1131EE020331193BF0501D510331193E3170D9FD0
S1131EF01C941D93013F00D409E20D9B0D9ADB4312
S1131F00DB171340013AE418D31A0D933A9B002BC4
S1131F1000D02DE2E3171294002501241393429B71
S1131F20013B4293002B00DB9AE201240025129B23
S1131F3011931E93DB171F93109B5F1E002B00DD74
S1131F40ADE2109B109ADB43DB171340119A9C18E7
S1131F5011E240233A001A401F4217D00722069B81
S1131F600733934319000CC9049205930691802307
S1131F703A001A401F420FD06B461B8A0493002379
S1131F8005934C4A3B075FD44B4A5DE0069B0592A0
S1131F9002CB04910693EAE7FB05F2D56B461B7C62
S1131FA005920493EDE740233A001A401F4220D0E3
S1131FB00722069B0733934319000CC90492059327
S1131FC0069180233A001A401F4218D06B461B8AA0
S1131FD004930023059310213B0037480B40020073
S1131FE011930F4200D114E7344B1F400023119387
S1131FF00FE7069B059202CB04910693E1E7FB05EC
S1132000E9D56B461B7C05920493E4E77B061DD55A
S11320100722069B0733934319000CC90E920F93B2
S113202006913B0619D56B4638229B5E0E93DB174F
S11320300F930F9B002B18DA0E980F99002342423E
S11320408B41049205931E4A00238CE6069B04CB25
S11320500E92D2170F920693E3E7FB05E9D56B4680
S113206038229B181B785BB2E0E70E9A0F9B049210
S11320700593144ABB07E7D4134A7B07E4D483E7E8
S113208010231F4200D0C6E41F43033B1093C2E455
S113209028006F38092800D9E7E001F053F9D28B02
S11320A0E6E6E6E617E6E68BE6350000CA3500000C
S11320B001020000CD3500000E360000FFFDFFFFD9
S11320C0CF350000D1350000D33500000023109334
S11320D0049B059A134300D1CCE6049C059D059B03
S11320E0049ADB0752081A43059B32925B08339328
S11320F0049A059B92089B071A43059B34929B08FC
S1132100359334983599329A339B12184B411907F9
S11321101009084319092C902D912C982D99121807
S11321204B411906100A0843190A2E902F912E9834
S11321302F9912184B411904100C0843190C3090B4
S113214031913098319912184B4100213C933D91C3
S11321503C983D9912184B415907DB082B93D00842
S11321600023062208432A90A4185D412A982B993B
S11321700A22002301F0BAF8241A8D412B07220900
S11321801A432B09369237930A222A9B2B9C3698A2
S11321903799C018614128254243049B109C303371
S11321A09B1A3EAA5219135523000133049005913A
S11321B010938DE700220F2048A9049C059B1C4323
S11321C019D1109256E62800583811284DD801F03C
S11321D0C1F8F1FF4C004C004C004C004C004C008A
S11321E04C004C003C004C004C007DFF3C003C008B
S11321F03C004C007DFF049C119B04401C5D059B2E
S113220054541B079C46049B01321D09059B1C0961
S113221063462B4304930594CFE704980840303079
S113222098540598013345070498C4080598254334
S1132230C008049505900498059C2043EDD11093A3
S113224018E60023072148AAF5E745AB039344ABFE
S1132250029342AB019343AB009328003B00589C8C
S113226048AA46A9A047109004E60023E7E7429B4A
S1132270109A9B1A00D412E63A9B10E6099BAB42D3
S113228003DC0CD1089BA34209D9B368013BB360BA
S1132290002B14DB33685A1C326020221A7001228E
S11322A00023A4185D410D9B5A1E131BE6D50D9BFC
S11322B00D99DB43DB170B40D21A0D9202E6310075
S11322C0202000F0D5F9EAE700240025EBE7099B7C
S11322D0159A934204DC0CD1089B149A934208D9B2
S11322E0B368013BB360002B0CDB33685A1C3260CB
S11322F01D700121149B159C00225B1854411493FA
S11323001594E2E53100280000F0B2F9F1E7099BE9
S11323101D9A934204DC0DD1089B1C9A934209D95F
S1132320B368013BB360002B0DDB33685A1C326089
S1132330119A1A7001201C9A1D9B002112184B41FE
S11323401C921D93D6E53100119800F091F9F1E744
S113235048ABE85CE3173C2821D03E286AD11694A8
S11323601793459B013B4593002B42DA169C01359C
S1132370109BAB42ECDC3B9B002B0CD0E3170D9D78
S113238022942393013D00D4A9E00D9B0D9ADB43D5
S1132390DB171340E418079B1B19FFF730FB189455
S11323A01993449B013B4493002B01DA189CDEE70C
S11323B0099B199A934204DC0DD1089B189A934205
S11323C009D9B368013BB360002B0DDB33685A1C99
S11323D0326030221A700121189B199C00225B186C
S11323E0544118931994DCE73100302000F040F98F
S11323F0F1E7099B179A934204DC0DD1089B169AC6
S1132400934209D9B368013BB360002B0DDB3368F9
S11324105A1C326030221A700121169B179C00222C
S11324205B185441169317949BE73100302000F059
S11324301FF9F1E7099A934203DB0BD1089BA342EE
S113244008D9B368013BB360002B05DB33685A1C21
S11324503260187001348AE7310000F009F9F9E7B5
S1132460099B139A934204DC0DD1089B129A934260
S113247009D9B368013BB360002B0BDB33685A1CEA
S1132480326030221A70129A139B12196B41129205
S1132490139344E53100302000F0EAF8F3E7099B98
S11324A01F9A934204DC0ED1089B1E9A93420AD9C8
S11324B0B36848AA013BB85CB360002B0BDB3368FC
S11324C05A1C326018701E9A1F9B12196B411E927F
S11324D01F933B0031E5310000F0CAF8F3E7099B94
S11324E0239A934204DC0DD1089B229A934209D982
S11324F0B368013BB360002B0DDB33685A1C3260B8
S113250020221A700120229A239B002112184B4189
S11325102292239336E73100202000F0A9F8F1E756
S11325200EB430B594B017AB20CB04003C2200218C
S113253005A8049300F07AFE0A2301220893104BA5
S1132540009507930F4B52420293049B05A80193F5
S11325500B4B0594FFF720F9079B0400013B0793FD
S1132560002B08DB0022059B1A70200014B030BC3D
S113257008BC03B0184705A9002000F079F8F4E777
S1132580FFFFFF7F29320000F0B5C5680400012079
S1132590AE070CD080208000824213D08020C0007F
S11325A0824205D08020400082420BD0FF38F0BD2B
S11325B02100012324311543002021612160E361BE
S11325C0E560F4E7024F5E1E0120BE42F3D9EEE758
S11325D0FEFFFF000300032110B51A000B4219D1BE
S11325E0114C1368114959189943214219D0DCB28E
S11325F0511C002C0BD0FF242402911C234206D032
S1132600FF2109040B40591E8B41D318D91C0130FA
S1132610081A05E001335C1E2478002CDDD1101A61
S113262010BD0432DDE7C04680808080FFFEFEFEE0
S11326302022C36810B59343C3608269836A04008F
S11326409A420CD000F0F6F8E268074B1A401023C7
S11326501343E360A36AA3612369E3622360E3682D
S1132660024A1340E36010BDEFCFFFFFBFBFFFFF7F
S1132670F8B5504ACB6805001A400C00CA609B06A6
S113268002D50800FFF7D4FFA268E668531C0FDAEE
S1132690B3050DD402235B429B1AA36090235B0213
S11326A03343E36023685A1C22601D70E8B20AE0D9
S11326B0414A3240022A07D00023A36080333343C7
S11326C0E36001204042F8BD80213C4B09023340C5
S11326D08B420AD10021200000F0DAF9E3689B065E
S11326E002D52000FFF7A4FFE6689023F0225B02E6
S11326F033431201E360164210D1606900F041FED9
S1132700002821D073051FD52300243323612360BF
S11327100123E36192235B023343E36090210901C7
S1132720226826690B4225D0E36A9A4200D9130035
S1132730991BB34217D1731CE3622360E3695A1EE9
S1132740A26023633570B1E780277F00380000F072
S113275041F99423E2685B0233431A432061206009
S1132760E761E260DAE72200300000F091F8002827
S1132770E1D0A6E7511CE8B221601070E26A21683A
S11327808A4200D91100E269891B22635B0504D4E3
S11327900A2802D08A4200DD88E7002322003000A4
S11327A0E6622660A36000F073F8002800D088E792
S11327B07CE7C046FFFFF7FF8A10000010A000006E
S11327C0F7B50D0001901000140000F013F92B78F8
S11327D0722B1CD0772B1DD0612B26D1144A593B68
S11327E00220691C032784460426012508782B2827
S11327F013D0622816D0E260019A62611B0704D5E7
S113280002220021200000F043F92000FEBD002335
S11328100122E5E704230222E2E760463A43034348
S11328200131E3E732432B43FAE70024EDE7C046E6
S11328300280000070B50400134AE36805691A4079
S11328400168C06AE26082221A40022A02D0012092
S1132850404270BDDB030CD5814200D201008D42A1
S113286009D10023094AA360E368E56213402560A7
S1132870E3600020EDE722002800491B00F008F87F
S11328800028EED0E3E7C046FFFFF7FFFFFFFEFF9F
S1132890F7B5D5680F00140056690190EB0205D511
S11328A0102330001D4300F069FDA061104B1D4250
S11328B00FD03000A16900F06AFD002806DA8023F9
S11328C00120E26840421343E3600FE0094B1D40DE
S11328D0E5603A003000019900F05FFD4300A26911
S11328E05B08FB1AD318A3610028E8D1FEBDC046DB
S11328F010000200EFFFFDFFF8B50027344EC21CA4
S113290034689508B84212D080235B059C46002C9D
S11329100FD10C3000F058F9431C08D080239B05DC
S1132920036045608460002F50D130603EE0002099
S1132930F8BD236863452DD1A1686368002909D0D7
S11329400F6867451ED14F680333FB1863608B68BB
S1132950A360F1E7AB4220DA2E000A36B3422AD94B
S113296080208005206003262000B2430C308218AA
S11329706560A26080245B1B6405033B14605360A4
S11329809160D5E7AB4213DBEF1CBB420ADD07378E
S11329909F42E5D32700A468B9E7EE1C9E4201DA02
S11329A00736DBE780239B05236020000C30BFE75C
S11329B02F000A37ECE79B00C01A00F005F901303C
S11329C0B5D080239B0523606560EEE7B860EDE732
S11329D070E1FF1F10B5FFF78FFF041E05D117220A
S11329E0034900F0DAFC00F0C5FC200010BDC0462D
S11329F0F7350000F0B5C56804004769066989B079
S1132A00AB0720D02B0716D400F022F8380000F0D2
S1132A10B2FC2B0502D5300000F00CFC0B4BAD0DC5
S1132A20AD059D4207D120226846216A00F0B2FC20
S1132A30684600F015FC3C220021200000F0F6FB63
S1132A40002009B0F0BD01204042FAE7000080AD4B
S1132A50F8B5002812D000F0D9F805002800F8BD18
S1132A6038006043084BC01800F0D0F8002801D0AB
S1132A7001256D420134A642F2DCEFE7034B04006A
S1132A8005003C271E68F6E778E1FF1FB835000013
S1132A90F7B54369C6680193364B04000D000092F4
S1132AA01E420BD0019800F06CFC071E06D1009B5F
S1132AB0012B06D0022B2DD0002B06D00227380084
S1132AC0FEBD200000F05AF82D18002DF6DBB304EB
S1132AD004D52368E26A9A4200D2E362A369AB4256
S1132AE00EDCE16A22688A4200D20A002169D01809
S1132AF00091401AA84203DB206B1918A94228DC74
S1132B0020231E430023A562A36063601A4B1E406A
S1132B10E660D4E7019800F031FCE268002804DAAA
S1132B20802313430127E360C9E7E16A23689942DC
S1132B3000D90B00A1695B1821695B1A920603D5C1
S1132B40A26A934200DA1300834200DA0300ED180C
S1132B50BBE7EB1AB50701D5181AA060F00703D537
S1132B600099521A9A1A6260009AD118202321609F
S1132B709E43CBE703001000BFCFF7FFC1680200FC
S1132B808B0705D1212201200E4B40421A60704769
S1132B9020230B4009030AD5002B02D0806A013898
S1132BA0F5E793690068C0181369C01AF7E7002BAA
S1132BB001D0806AEBE70368816900695B18181A21
S1132BC0E5E7C04674E1FF1F70B50D4D04002B68A6
S1132BD0002B01D10B4B2B6003232E6803349C4341
S1132BE03419200000F036F8002802D12C6030009F
S1132BF070BD0C220126044B76421A60F7E7C046EA
S1132C006CE1FF1F30E2FF1F74E1FF1FC36870B562
S1132C1003221E0004001640134211D09B0611D556
S1132C20856AFFF705FDE368094A20001340E36065
S1132C30FFF700FE0022060029002000FFF728FF0E
S1132C40300070BD83690568ED180369ED1AEAE781
S1132C50FFCFFFFF03000448002803D00022834273
S1132C60524110007047C04630EAFF1FB0B584B02F
S1132C7000AF0200FB1D1A70BB1D0A1C1A700F2343
S1132C80FB1800221A70FB1D1B78BB600FE0BB68A9
S1132C90DBB20F257C191800FDF728FC0300237014
S1132CA07B191B78002B0CD1BB680133BB60FB1D67
S1132CB01A78BB1D1B78D3181A00BB689342E6D35D
S1132CC000E0C0460F23FB181B781800BD4604B073
S1132CD0B0BD80B582B000AF786008001100FB1C65
S1132CE0021C1A70BB1C0A1C1A70BB1C1B78002B1C
S1132CF00BD17B685B69FA1C1278012191400A00B0
S1132D00D2431A407B685A610DE0BB1C1B78012B2F
S1132D1009D17B685B69FA1C1278012191400A0091
S1132D201A437B685A61C046BD4602B080BD90B567
S1132D3085B000AFF8607A600B243B190A1C1A7046
S1132D407B681A783B191978FB681800FFF7C1FFF4
S1132D507B681B78012B07D17B685A783B1919785B
S1132D60FB68180000F004F8C046BD4605B090BDED
S1132D7080B582B000AF786008001100FB1C021C13
S1132D801A70BB1C0A1C1A70BB1C1B78012B0AD1BD
S1132D907B681B68FA1C1278012191400A001A43CF
S1132DA07B681A600EE0BB1C1B78002B0AD17B6881
S1132DB01B68FA1C1278012191400A00D2431A4080
S1132DC07B681A60C046BD4602B080BD80B582B043
S1132DD000AF78600A00FB1C1A707B681B69FA1C40
S1132DE01278012191400A00134001D0012300E030
S1132DF000231800BD4602B080BD80B582B000AF8C
S1132E00786008001100FB1C021C1A70BB1C0A1C11
S1132E101A70BB1C1B78002B2ED0FB1C1A787B6805
S1132E209200D358FA1C1278022119437B6892004D
S1132E30D150BB1C1B78012B0CD1FB1C1A787B686E
S1132E409200D358FA1C1278012119437B6892002E
S1132E50D1501EE0BB1C1B78022B1AD1FB1C1A7824
S1132E607B689200D358FA1C127801218B43190015
S1132E707B689200D1500CE0FB1C1A787B689200AE
S1132E80D358FA1C127802218B4319007B689200F4
S1132E90D150C046BD4602B080BD80B582B000AFFF
S1132EA0786008001100FB1C021C1A70BB1C0A1C71
S1132EB01A70FB1C1A787B689200D358FA1C12789B
S1132EC004218B4319007B689200D150FB1C1A78B3
S1132ED07B689200D158BB1C1B789B0004221340D2
S1132EE0FA1C127819437B689200D150C046BD4643
S1132EF002B080BD80B582B000AF78600A00FB1CD0
S1132F001A70FB1C19787B6800221800FDF744FF37
S1132F10FB1C19787B6800221800FFF76EFFFB1C6E
S1132F2019787B6801221800FFF7B7FFFB1C19789A
S1132F307B6800221800FDF75FFFC046BD4602B063
S1132F4080BD80B582B000AF78600A00FB1C1A70A7
S1132F507B68A0229B58FA1C1278012191400A0038
S1132F60134001D0012300E000231800BD4602B045
S1132F7080BD80B582B000AF78600A00FB1C1A7077
S1132F80FB1C1A787B689200D358FA1C12788021B3
S1132F90490419437B689200D150C046BD4602B033
S1132FA080BD80B584B000AFF860B9607A60FB681A
S1132FB0BA681A60FB6801225242DA80FB68012277
S1132FC052421A817B68DAB2FB689A72FB6800226B
S1132FD09A80C046BD4604B080BD80B584B000AFC1
S1132FE078600F23FB1800221A707B68DB881A00B4
S1132FF07B681B8901339A420BD07B68DB88002BEA
S11330000BD17B681B891A007B689B7A013B9A422F
S113301003D10F23FB1801221A700F23FB181B780E
S11330201800BD4604B080BD80B584B000AF7860A0
S11330307B681800FDF7E4FF031E05D00E23FB1880
S1133040012252421A8030E07B681B687A68D28879
S11330509B181A780E23FB181A807B689B88013B07
S11330609AB27B689A807B68DA887B681B899A426B
S113307008D17B6801225242DA807B6801225242E5
S11330801A8112E07B68DB8801339AB27B68DA80AC
S11330907B68DB881A007B689B7A1900100000F0BB
S11330A0E8F80B009AB27B68DA800E23FB18002242
S11330B09B5E1800BD4604B080BDB0B586B000AFBD
S11330C0F860B960FB1D1A701623FB1801225242E6
S11330D01A801423FB1800221A801AE016257C1982
S11330E0FB681800FFF7A0FF0300238028003B18AB
S11330F000229B5E01330CD01422BB181B88BA1823
S1133100591C11801A00BB689B183A181288D2B255
S11331101A701623FB1800229A5EFB1D1B789A4234
S1133120DCD11423FB181B881800BD4606B0B0BDC3
S113313080B582B000AF0200FB1D1A70FB1D1B7826
S11331402F2B08D9FB1D1B78392B04D8FB1D1B78AA
S1133150303BDBB20DE0FB1D1B78402B08D9FB1D77
S11331601B78462B04D8FB1D1B78373BDBB200E0F1
S1133170FF231800BD4602B080BD90B585B000AFF6
S1133180786039600E243B1900221A700F23FB1853
S113319000221A703B6801331B781800FFF7C8FF40
S11331A003001A003B191A703B191B785BB20133F8
S11331B024D03B191A787B681A703B681B78180076
S11331C0FFF7B6FF03001A003B191A703B191B786E
S11331D05BB201330DD07B681B785AB23B191B7864
S11331E05BB21B015BB213435BB2DAB27B681A7049
S11331F008E00F23FB1801221A7003E00F23FB18C9
S113320001221A700F23FB181B781800BD4605B065
S113321090BD80B500AFC046BD4680BD10B5FEF779
S11332207DFAFDF761FA10BD0020704710B500F07B
S113323074F810BD10B5002811D080210C38490550
S113324001608268002A0AD013688B4207D1436860
S1133250546803331B19436093688360F1E710BD1E
S113326010B50400FFF7B6F90100200000F08CF857
S113327010BD03000B4321D4002931D00122D20711
S1133280030901E0090112099942FBD9430801E04D
S1133290490052089942FBD900E04908401A07D373
S11332A05241FAD301461046704749084018F7D2F4
S11332B09218FAD34018014610467047CB0F00D03D
S11332C04942021000D54042534008B5FFF7D4FFED
S11332D00CBC521000D34042002A00D54942184782
S11332E0F446002000F001F86047704710B54343EE
S11332F05143C918040C130C5C43091992B2040C11
S1133300544380B2434350432204240C8018614147
S11333101A041B0C8018594110BD8446043A09D381
S1133320830707D109060B0A19430B0C1943043A06
S113333002C0FCD2043203D001700130013AFBD147
S1133340604670478C4671460139095C49008E44D9
S1133350614670478C46411E7144095E49008E44A3
S1133360614670478C46411E7144095A49008E4497
S113337061467047FEE70120404270470120404209
S113338070470120404270470120404270470120AD
S11333904042704701204042704710007047FFFFD1
S11333A00A2A2A2A2A2A2A2A2A2A20426F6F746C75
S11333B06F61646572205631202A2A2A2A2A2A2A11
S11333C02A2A2A2A0A2009090909456E74657265A0
S11333D06420626F6F746C6F6164657221200A00EF
S11333E0526576657273656420746F2070726576B9
S11333F0696F7573206669726D7761726520617497
S113340020736563746F7220307825780A00000099
S1133410457261736564206174202564207365635B
S1133420746F722066726F6D203078253032780A9E
S1133430000000002A2A2A54727920746F20626FD7
S11334406F7420617420736563746F723A2025640D
S11334500A0000002A2A2A52657365742068616E86
S1133460646C65723A2030782578202E2E2E2054F4
S11334706F7053503A2030782578200A00000000FD
S11334804661696C20746F20626F6F740A00FFFFDD
S113349024080000060A0000060A0000060A0000CC
S11334A0060A0000060A0000060A00004C07000095
S11334B0060A0000060A0000060A0000060A0000C8
S11334C0060A0000C8070000C4080000000A000043
S11334D0010101005B25645D200000005265616408
S11334E07920746F20466C6173680A0045726173B9
S11334F06520736563746F72206572726F720A005F
S11335004572726F72207768696C6520666C6173AE
S113351068696E6720776F72640A000057726F6E75
S1133520672064617461206C696E650A00000000A4
S1133530466C6173682066696E69736865640A0025
S113354053796E746178206572726F720A0000009C
S1133550536563746F72732068617665206E6F744F
S113356020657261736564207965740A0000000047
S1133570426F6F7420746F20736563746F7220667A
S113358061696C0A000000002A2A2A005E0C00000F
S1133590220C00000E0C0000040C0000180C0000AB
S11335A02C0C0000360C0000400C00004A0C0000FB
S11335B05E0C0000540C0000030000007200770051
S11335C0286E756C6C290030580030780030002D5E
S11335D0002B00200030313233343536373839414E
S11335E04243444546003031323334353637383976
S11335F0616263646566002A2A2A205F43737973D3
S11336005F616C6C6F63206661696C65640A00FFBE
S90300D527
